:107000005FC0000078C0000076C0000074C00000BF
:1070100072C0000070C000006EC000006CC00000B4
:107020006AC0000068C000008DC4000064C0000099
:1070300062C0000060C000005EC000005CC00000D4
:107040005AC0000092C0000056C0000054C00000AA
:1070500052C0000050C000004EC000004CC00000F4
:107060004AC0000048C0000046C0000044C0000004
:1070700042C0000040C000003EC000003CC0000014
:107080003AC0000038C0000036C0000034C0000024
:1070900032C0000030C000002EC000002CC0000034
:1070A0002AC0000028C0000026C000000D3E263E79
:1070B000D23E263ED23E5E3E803ED23EA03EB23E14
:1070C00011241FBECFEFDAE0DEBFCDBF11E0A0E09C
:1070D000B1E0EEE2FEE702C005900D92A23BB107DF
:1070E000D9F721E0A2EBB1E001C01D92A53CB207A7
:1070F000E1F7F1D29AC684CF84E08093E9008091D1
:10710000E80085FD0DC08091E8008B778093E80052
:107110008091E80082FDF3CF8EB38111F9CF02C0D8
:107120008091F100089593E09093E9009091E80038
:1071300095FF03C08093F10008959091E8009E7739
:107140009093E8009091E80090FDF4CF9EB39111E8
:10715000F9CF0895F89410926F001092810081E0A9
:1071600085BF15BE0C94000008951F920F920FB6B4
:107170000F9211242F938F939F93EF93FF9310926D
:107180008500109284008091B2019091B301019624
:107190009093B3018093B201E0E0F0E08591949187
:1071A000019649F08091B4019091B50101969093B8
:1071B000B5018093B401FF91EF919F918F912F9131
:1071C0000F900FBE0F901F90189542E061EC82E087
:1071D00036D342E161E883E032D342E160E884E003
:1071E0002EC38091BD01982F9F77913239F59091F0
:1071F000BE01903291F0913209F5813AF9F4809113
:10720000E800877F8093E80067E070E082E091E02B
:107210004AD48091E8008B770FC0813279F4809155
:10722000E800877F8093E80067E070E082E091E00B
:1072300092D48091E8008E778093E80008954F9271
:107240005F926F927F928F929F92AF92BF92CF92F6
:10725000DF92EF92FF920F931F93CF93DF9384E01F
:107260008093E9008091E80082FF24C245DFC82FA7
:10727000853481F48CE49DE19093B5018093B40151
:1072800007B600FCFDCFF999FECF81E1809357004E
:10729000E89503C0843521F42FDF8DE044DFE1C1A0
:1072A0008C34D9F38035C9F3843721F484E43BDF8F
:1072B00080E0F4CF813611F489E5F0CF813491F488
:1072C0001BDFC82F19DF2C2F30E0322F2227330F7E
:1072D00090E0880F991F822B932B092E000CAA0B8C
:1072E000BB0B93C1803711F483E5D8CF833549F4C4
:1072F000C9EAD1E0899117DF21E0C03BD207D1F77D
:10730000B0C1863521F481E30EDF80E3C7CF833738
:1073100031F487E808DF85E906DF8EE1BFCF8536E7
:10732000B9F4E0E0F0E083E095E080935700E89561
:1073300007B600FCFDCF90935700E89507B600FC18
:10734000FDCFE058FF4FE11540E7F40771F7A5CFF7
:10735000823719F4E1E0F0E00EC0863419F4E0E081
:10736000F0E009C08E3419F4E3E0F0E004C08135A8
:1073700039F4E2E0F0E089E08093570084918ECF09
:10738000823631F489E5CFDE80E0CDDE80E886CF3D
:10739000823419F0873609F0D0C01092B5011092EE
:1073A000B401AADE082FA8DED82FA6DE182F8BEB9B
:1073B000810F823010F08FE371CF8D2F90E0902BF2
:1073C00010926F00C73609F042C021E120935700A8
:1073D000E895EC01B12C01E0209709F4AAC0C09017
:1073E000B701D090B801E090B901F090BA0116341D
:1073F000B9F4EB2DF0E0EC29FD29849194DEBB205B
:1074000069F052E0C50ED11CE11CF11CC092B7011D
:10741000D092B801E092B901F092BA01B02615C03D
:10742000D701C601B695A79597958795E8D47BDED9
:1074300082E0C80ED11CE11CF11CC092B701D092B1
:10744000B801E092B901F092BA012197C5CF8090BE
:10745000B7019090B801A090B901B090BA0116346C
:1074600041F423E0F40120935700E89507B600FCAF
:10747000FDCFE12CF12CEC0101E0209709F44DC087
:10748000163439F5FF2009F14090B7015090B8014A
:107490006090B9017090BA012FDE2E2D30E0A90165
:1074A000582BF2010A0100935700E8951124F2E0ED
:1074B0004F0E511C611C711C4092B7015092B801D3
:1074C0006092B9017092BA0102C016DEE82EF02671
:1074D00022C012DE682F8091B7019091B801A0916F
:1074E000B901B091BA01B695A795979587958FD4B4
:1074F0008091B7019091B801A091B901B091BA0102
:107500000296A11DB11D8093B7019093B801A0937D
:10751000B901B093BA012197B0CF163441F485E098
:10752000F40180935700E89507B600FCFDCF8DE08D
:10753000FADD82E080936F0094C0833471F4C091CF
:10754000B701D091B801D8DD90E021E0FE010C0137
:1075500020935700E8951124A0CE833601F5C09002
:10756000B701D090B801E090B901F090BA01C4DD44
:10757000F601E16090E021E00C0120935700E895CE
:107580001124F2E0CF0ED11CE11CF11CC092B70116
:10759000D092B801E092B901F092BA017ECE8D3658
:1075A00061F4E091B701F091B80185E08093570054
:1075B000E89507B600FCFDCF70CE823551F4E0911E
:1075C000B701F091B801C591D4918D2FACDD8C2F0E
:1075D00065CE843419F590DD682F8091B7019091C4
:1075E000B801A091B901B091BA01B695A795979548
:1075F00087950DD48091B7019091B801A091B90100
:10760000B091BA010296A11DB11D8093B70190936C
:10761000B801A093B901B093BA013FCE8436F1F41A
:10762000C090B701D090B801E090B901F090BA01D4
:10763000D701C601B695A79597958795E0D373DDD9
:1076400022E0C20ED11CE11CF11CC092B701D09205
:10765000B801E092B901F092BA0103C08B3109F090
:10766000AACE83E08093E9009091E8008091E80041
:107670008E778093E80095FD11C08091E80080FD31
:1076800004C08EB38111F9CF15C08091E8008E77C8
:107690008093E80003C08EB3882361F08091E800F6
:1076A00080FFF9CF84E08093E9008091E8008B7738
:1076B0008093E800DF91CF911F910F91FF90EF90A1
:1076C000DF90CF90BF90AF909F908F907F906F9002
:1076D0005F904F900895909100081092000884B731
:1076E00014BE0FB6F894A8952091600028612093ED
:1076F0006000109260000FBE40E820E00FB6F894E2
:1077000040936100209361000FBE21E025BF32E06D
:1077100035BF4093610010926100109289004AEFDA
:107720004093880030936F0033E030938100E0E0B5
:10773000F0E0459154914F3F5F4F11F02093B60117
:1077400081FF20C0209100019217E1F020930008F2
:10775000789480910101882339F08091B201909151
:10776000B3018F3E9240C8F310920101F894109239
:10777000000881E0809301018091B601882371F0B7
:10778000E9DC0CC080FF04C02091B6012111F8CFC4
:1077900083FF04C0809100019813EECFBBD0789492
:1077A0001092B5011092B40180910101882361F01B
:1077B00046DD0ED38091B4019091B50181349F4193
:1077C00098F310920101F0CF8091E00081608093E6
:1077D000E000C0DC80E090E00895292F30E0223006
:1077E000310559F02330310569F021303105F9F4C4
:1077F00082E190E027E931E01EC08EE390E029E5C8
:1078000031E019C0882349F0813061F0823079F489
:107810008AE290E029E031E00EC084E090E025E5C6
:1078200031E009C08EE190E025E331E004C080E062
:1078300090E020E030E0FA013183208308958093C6
:10784000E900EBEEF0E0808181608083EDEEF0E016
:1078500010826093EC0040838091EE00881F88279F
:10786000881F08958091BD0187FF0FC08091E800B7
:1078700082FD04C08EB38111F9CF10C08091E80061
:107880008B770AC08EB3882349F08091E80080FF8F
:10789000F9CF8091E8008E778093E80008950F93E8
:1078A0001F93CF93DF9341D048D0C8EDD0E08881BB
:1078B0008F77888388818068888388818F7D88839B
:1078C00019BC1EBA1092BB0100EE10E0F8018081D5
:1078D0008B7F808388818160888342E060E080E0E4
:1078E000AEDFE1EEF0E080818E7F8083E2EEF0E0BB
:1078F000808181608083808188608083F8018081BD
:107900008E7F8083888180618883DF91CF911F91F2
:107910000F910895E7EDF0E08081816080838AE433
:1079200082BF81E08093BC01BACFE8EDF0E08081B6
:107930008E7F80831092E20008951092DA001092F8
:10794000E10008951F920F920FB60F9211242F930A
:107950003F934F935F936F937F938F939F93AF93D7
:10796000BF93EF93FF938091DA0080FF1BC080915B
:10797000D80080FF17C08091DA008E7F8093DA00F4
:107980008091D90080FF0BC080E189BD82E189BD73
:1079900009B400FEFDCF81E08EBB19D203C019BC33
:1079A0001EBA15D28091E10080FF17C08091E200DD
:1079B00080FF13C08091E2008E7F8093E20080916F
:1079C000E20080618093E2008091D8008062809321
:1079D000D80019BC85E08EBBFAD18091E10084FF0C
:1079E0002CC08091E20084FF28C080E189BD82E143
:1079F00089BD09B400FEFDCF8091D8008F7D8093B2
:107A0000D8008091E1008F7E8093E1008091E200B8
:107A10008F7E8093E2008091E20081608093E2009B
:107A20008091BB01811106C08091E30087FD02C0F7
:107A300081E001C084E08EBBCAD18091E10083FF68
:107A400021C08091E20083FF1DC08091E100877F0B
:107A50008093E10082E08EBB1092BB018091E10037
:107A60008E7F8093E1008091E2008E7F8093E20020
:107A70008091E20080618093E20042E060E080E07B
:107A8000DEDEA5D1FF91EF91BF91AF919F918F91D4
:107A90007F916F915F914F913F912F910F900FBE0A
:107AA0000F901F9018952091C3013091C4012617A3
:107AB000370748F06115710539F42091E8002E77F9
:107AC0002093E80001C0B901FC0120E061157105B7
:107AD00071F18EB38823D9F18530D9F18091E80016
:107AE00083FD33C08091E80082FD29C08091E800C9
:107AF00080FFECCF2091F3008091F20090E0922B78
:107B00006115710551F08830910538F42191209369
:107B1000F100615071090196F3CF21E0089709F057
:107B200020E08091E8008E778093E800CFCF21118C
:107B3000D0CF05C08EB3882351F0853051F08091AD
:107B4000E80082FFF7CF80E0089581E0089582E0A9
:107B5000089583E008956115710529F42091E800E6
:107B60002B772093E800FC016115710531F18EB38C
:107B7000882359F1853059F18091E80083FD23C0B5
:107B80008091E80082FFF0CF2091F3008091F20015
:107B900090E0922B892B31F08091F100819361501C
:107BA000710991F78091E8008B778093E800DCCF32
:107BB0008EB3882351F0853051F08091E80080FF2A
:107BC000F7CF80E0089581E0089582E0089583E092
:107BD00008950F931F93CF93DF9300D0CDB7DEB7F7
:107BE000EDEBF1E085EC91E02091F10021938E170F
:107BF0009F07D1F7F6DA8091E80083FFD3C0809128
:107C0000BD019091BE01492F50E04A30510508F066
:107C1000C9C0FA01EA5AF74CECC0823809F0C2C078
:107C20008091C10187708093E9008091EB001092F0
:107C3000E9009091E800977F9093E80085FB882702
:107C400080F98093F1001092F10085C0282F2D7FDC
:107C500009F0A8C0823009F0A5C08091BF01811150
:107C600027C08091C101877009F49CC08093E9000E
:107C70002091EB0020FF1CC0933021F48091EB0099
:107C8000806214C09091EB0090619093EB0021E032
:107C900030E0A90102C0440F551F8A95E2F74093D6
:107CA000EA001092EA008091EB0088608093EB007C
:107CB0001092E9008091E800877F50C0811172C066
:107CC0001091BF011F770FB7F8948091E800877F6C
:107CD0008093E800C7DD8091E80080FFFCCF8091B1
:107CE000E3008078812B8093E30080688093E30039
:107CF000111102C082E001C083E08EBB0FBF52C0F1
:107D00008058823008F04EC0AE014F5F5F4F6091E7
:107D1000C1018091BF019091C0015FDDBC01892B41
:107D200009F440C09091E800977F9093E800898122
:107D30009A81B9DE8091E8008B778093E80032C0A9
:107D4000803881F58091E800877F8093E8008091FA
:107D5000BB018093F1008091E8008E778093E8006A
:107D600081DD20C081111EC08091BF019091C001B2
:107D700099270297BCF48091E800877F8093E80000
:107D80008091BF018093BB016DDD8091BB018111AA
:107D900006C08091E30087FD02C081E001C084E05D
:107DA0008EBB13DA8091E80083FF0AC08091EB005C
:107DB00080628093EB008091E800877F8093E800E9
:107DC0000F900F90DF91CF911F910F91089508951B
:107DD000CF938EB3882359F0C091E900C7701092F9
:107DE000E9008091E80083FDF4DEC093E900CF91C3
:107DF0000895EE0FFF1F0590F491E02D0994F99975
:107E0000FECF92BD81BDF89A992780B50895262F9F
:107E1000F999FECF1FBA92BD81BD20BD0FB6F8946F
:0E7E2000FA9AF99A0FBE01960895F894FFCFD2
:107E2E007701000000000000082A034D006F006279
:107E3E0000690046006C006900670068007400204D
:107E4E000020002000200020002000200020002024
:107E5E0000200000001E03410054006D0065006705
:107E6E000061003300320075003400200020002035
:107E7E0000200000000403090409023E0002010074
:107E8E0080320904000001020201000524001001E5
:107E9E00042402040524060001070582030800FFDE
:107EAE0009040100020A0000000705040210000187
:107EBE0007058302100001120110010200000809DB
:107ECE001201000100020100014341544552494E86
:027EDE00410061
:040000030000700089
:00000001FF
